{
  "_format": "hh-sol-artifact-1",
  "contractName": "WrappedStackDollars",
  "sourceName": "contracts/DestinationToken.sol",
  "abi": [
    {
      "inputs": [
        {
          "internalType": "address",
          "name": "_bridge",
          "type": "address"
        }
      ],
      "stateMutability": "nonpayable",
      "type": "constructor"
    },
    {
      "anonymous": false,
      "inputs": [
        {
          "indexed": true,
          "internalType": "address",
          "name": "owner",
          "type": "address"
        },
        {
          "indexed": true,
          "internalType": "address",
          "name": "spender",
          "type": "address"
        },
        {
          "indexed": false,
          "internalType": "uint256",
          "name": "value",
          "type": "uint256"
        }
      ],
      "name": "Approval",
      "type": "event"
    },
    {
      "anonymous": false,
      "inputs": [
        {
          "indexed": true,
          "internalType": "address",
          "name": "from",
          "type": "address"
        },
        {
          "indexed": true,
          "internalType": "address",
          "name": "to",
          "type": "address"
        },
        {
          "indexed": false,
          "internalType": "uint256",
          "name": "value",
          "type": "uint256"
        }
      ],
      "name": "Transfer",
      "type": "event"
    },
    {
      "inputs": [
        {
          "internalType": "address",
          "name": "owner",
          "type": "address"
        },
        {
          "internalType": "address",
          "name": "spender",
          "type": "address"
        }
      ],
      "name": "allowance",
      "outputs": [
        {
          "internalType": "uint256",
          "name": "",
          "type": "uint256"
        }
      ],
      "stateMutability": "view",
      "type": "function"
    },
    {
      "inputs": [
        {
          "internalType": "address",
          "name": "spender",
          "type": "address"
        },
        {
          "internalType": "uint256",
          "name": "amount",
          "type": "uint256"
        }
      ],
      "name": "approve",
      "outputs": [
        {
          "internalType": "bool",
          "name": "",
          "type": "bool"
        }
      ],
      "stateMutability": "nonpayable",
      "type": "function"
    },
    {
      "inputs": [
        {
          "internalType": "address",
          "name": "account",
          "type": "address"
        }
      ],
      "name": "balanceOf",
      "outputs": [
        {
          "internalType": "uint256",
          "name": "",
          "type": "uint256"
        }
      ],
      "stateMutability": "view",
      "type": "function"
    },
    {
      "inputs": [
        {
          "internalType": "uint256",
          "name": "amount",
          "type": "uint256"
        }
      ],
      "name": "burn",
      "outputs": [],
      "stateMutability": "nonpayable",
      "type": "function"
    },
    {
      "inputs": [
        {
          "internalType": "address",
          "name": "_account",
          "type": "address"
        },
        {
          "internalType": "uint256",
          "name": "_amount",
          "type": "uint256"
        }
      ],
      "name": "burnFrom",
      "outputs": [],
      "stateMutability": "nonpayable",
      "type": "function"
    },
    {
      "inputs": [],
      "name": "decimals",
      "outputs": [
        {
          "internalType": "uint8",
          "name": "",
          "type": "uint8"
        }
      ],
      "stateMutability": "view",
      "type": "function"
    },
    {
      "inputs": [
        {
          "internalType": "address",
          "name": "spender",
          "type": "address"
        },
        {
          "internalType": "uint256",
          "name": "subtractedValue",
          "type": "uint256"
        }
      ],
      "name": "decreaseAllowance",
      "outputs": [
        {
          "internalType": "bool",
          "name": "",
          "type": "bool"
        }
      ],
      "stateMutability": "nonpayable",
      "type": "function"
    },
    {
      "inputs": [
        {
          "internalType": "address",
          "name": "spender",
          "type": "address"
        },
        {
          "internalType": "uint256",
          "name": "addedValue",
          "type": "uint256"
        }
      ],
      "name": "increaseAllowance",
      "outputs": [
        {
          "internalType": "bool",
          "name": "",
          "type": "bool"
        }
      ],
      "stateMutability": "nonpayable",
      "type": "function"
    },
    {
      "inputs": [
        {
          "internalType": "address",
          "name": "_recipient",
          "type": "address"
        },
        {
          "internalType": "uint256",
          "name": "_amount",
          "type": "uint256"
        }
      ],
      "name": "mint",
      "outputs": [],
      "stateMutability": "nonpayable",
      "type": "function"
    },
    {
      "inputs": [],
      "name": "name",
      "outputs": [
        {
          "internalType": "string",
          "name": "",
          "type": "string"
        }
      ],
      "stateMutability": "view",
      "type": "function"
    },
    {
      "inputs": [],
      "name": "symbol",
      "outputs": [
        {
          "internalType": "string",
          "name": "",
          "type": "string"
        }
      ],
      "stateMutability": "view",
      "type": "function"
    },
    {
      "inputs": [],
      "name": "totalSupply",
      "outputs": [
        {
          "internalType": "uint256",
          "name": "",
          "type": "uint256"
        }
      ],
      "stateMutability": "view",
      "type": "function"
    },
    {
      "inputs": [
        {
          "internalType": "address",
          "name": "to",
          "type": "address"
        },
        {
          "internalType": "uint256",
          "name": "amount",
          "type": "uint256"
        }
      ],
      "name": "transfer",
      "outputs": [
        {
          "internalType": "bool",
          "name": "",
          "type": "bool"
        }
      ],
      "stateMutability": "nonpayable",
      "type": "function"
    },
    {
      "inputs": [
        {
          "internalType": "address",
          "name": "from",
          "type": "address"
        },
        {
          "internalType": "address",
          "name": "to",
          "type": "address"
        },
        {
          "internalType": "uint256",
          "name": "amount",
          "type": "uint256"
        }
      ],
      "name": "transferFrom",
      "outputs": [
        {
          "internalType": "bool",
          "name": "",
          "type": "bool"
        }
      ],
      "stateMutability": "nonpayable",
      "type": "function"
    }
  ],
  "bytecode": "0x60806040523480156200001157600080fd5b5060405162001e6538038062001e658339818101604052810190620000379190620001e6565b6040518060400160405280601381526020017f57726170706564537461636b446f6c6c617273000000000000000000000000008152506040518060400160405280600381526020017f57534400000000000000000000000000000000000000000000000000000000008152508160039080519060200190620000bb9291906200011f565b508060049080519060200190620000d49291906200011f565b50505080600560006101000a81548173ffffffffffffffffffffffffffffffffffffffff021916908373ffffffffffffffffffffffffffffffffffffffff16021790555050620002c5565b8280546200012d9062000246565b90600052602060002090601f0160209004810192826200015157600085556200019d565b82601f106200016c57805160ff19168380011785556200019d565b828001600101855582156200019d579182015b828111156200019c5782518255916020019190600101906200017f565b5b509050620001ac9190620001b0565b5090565b5b80821115620001cb576000816000905550600101620001b1565b5090565b600081519050620001e081620002ab565b92915050565b600060208284031215620001f957600080fd5b60006200020984828501620001cf565b91505092915050565b60006200021f8262000226565b9050919050565b600073ffffffffffffffffffffffffffffffffffffffff82169050919050565b600060028204905060018216806200025f57607f821691505b602082108114156200027657620002756200027c565b5b50919050565b7f4e487b7100000000000000000000000000000000000000000000000000000000600052602260045260246000fd5b620002b68162000212565b8114620002c257600080fd5b50565b611b9080620002d56000396000f3fe608060405234801561001057600080fd5b50600436106100ea5760003560e01c806342966c681161008c57806395d89b411161006657806395d89b411461025d578063a457c2d71461027b578063a9059cbb146102ab578063dd62ed3e146102db576100ea565b806342966c68146101f557806370a082311461021157806379cc679014610241576100ea565b806323b872dd116100c857806323b872dd1461015b578063313ce5671461018b57806339509351146101a957806340c10f19146101d9576100ea565b806306fdde03146100ef578063095ea7b31461010d57806318160ddd1461013d575b600080fd5b6100f761030b565b604051610104919061145c565b60405180910390f35b610127600480360381019061012291906111e6565b61039d565b6040516101349190611441565b60405180910390f35b6101456103c0565b604051610152919061160e565b60405180910390f35b61017560048036038101906101709190611197565b6103ca565b6040516101829190611441565b60405180910390f35b6101936103f9565b6040516101a09190611629565b60405180910390f35b6101c360048036038101906101be91906111e6565b610402565b6040516101d09190611441565b60405180910390f35b6101f360048036038101906101ee91906111e6565b610439565b005b61020f600480360381019061020a9190611222565b610516565b005b61022b60048036038101906102269190611132565b61052a565b604051610238919061160e565b60405180910390f35b61025b600480360381019061025691906111e6565b610572565b005b61026561064f565b604051610272919061145c565b60405180910390f35b610295600480360381019061029091906111e6565b6106e1565b6040516102a29190611441565b60405180910390f35b6102c560048036038101906102c091906111e6565b610758565b6040516102d29190611441565b60405180910390f35b6102f560048036038101906102f0919061115b565b61077b565b604051610302919061160e565b60405180910390f35b60606003805461031a90611772565b80601f016020809104026020016040519081016040528092919081815260200182805461034690611772565b80156103935780601f1061036857610100808354040283529160200191610393565b820191906000526020600020905b81548152906001019060200180831161037657829003601f168201915b5050505050905090565b6000806103a8610802565b90506103b581858561080a565b600191505092915050565b6000600254905090565b6000806103d5610802565b90506103e28582856109d5565b6103ed858585610a61565b60019150509392505050565b60006012905090565b60008061040d610802565b905061042e81858561041f858961077b565b6104299190611660565b61080a565b600191505092915050565b3373ffffffffffffffffffffffffffffffffffffffff16600560009054906101000a900473ffffffffffffffffffffffffffffffffffffffff1673ffffffffffffffffffffffffffffffffffffffff16146104c9576040517f08c379a00000000000000000000000000000000000000000000000000000000081526004016104c09061154e565b60405180910390fd5b6104d38282610ce2565b6105126040518060400160405280601481526020017f546f6b656e73206d696e74656420666f7220257300000000000000000000000081525083610e42565b5050565b610527610521610802565b82610ede565b50565b60008060008373ffffffffffffffffffffffffffffffffffffffff1673ffffffffffffffffffffffffffffffffffffffff168152602001908152602001600020549050919050565b3373ffffffffffffffffffffffffffffffffffffffff16600560009054906101000a900473ffffffffffffffffffffffffffffffffffffffff1673ffffffffffffffffffffffffffffffffffffffff1614610602576040517f08c379a00000000000000000000000000000000000000000000000000000000081526004016105f99061154e565b60405180910390fd5b61060c82826110b5565b61064b6040518060400160405280601581526020017f546f6b656e73206275726e65642066726f6d202573000000000000000000000081525083610e42565b5050565b60606004805461065e90611772565b80601f016020809104026020016040519081016040528092919081815260200182805461068a90611772565b80156106d75780601f106106ac576101008083540402835291602001916106d7565b820191906000526020600020905b8154815290600101906020018083116106ba57829003601f168201915b5050505050905090565b6000806106ec610802565b905060006106fa828661077b565b90508381101561073f576040517f08c379a0000000000000000000000000000000000000000000000000000000008152600401610736906115ce565b60405180910390fd5b61074c828686840361080a565b60019250505092915050565b600080610763610802565b9050610770818585610a61565b600191505092915050565b6000600160008473ffffffffffffffffffffffffffffffffffffffff1673ffffffffffffffffffffffffffffffffffffffff16815260200190815260200160002060008373ffffffffffffffffffffffffffffffffffffffff1673ffffffffffffffffffffffffffffffffffffffff16815260200190815260200160002054905092915050565b600033905090565b600073ffffffffffffffffffffffffffffffffffffffff168373ffffffffffffffffffffffffffffffffffffffff16141561087a576040517f08c379a0000000000000000000000000000000000000000000000000000000008152600401610871906115ae565b60405180910390fd5b600073ffffffffffffffffffffffffffffffffffffffff168273ffffffffffffffffffffffffffffffffffffffff1614156108ea576040517f08c379a00000000000000000000000000000000000000000000000000000000081526004016108e1906114ee565b60405180910390fd5b80600160008573ffffffffffffffffffffffffffffffffffffffff1673ffffffffffffffffffffffffffffffffffffffff16815260200190815260200160002060008473ffffffffffffffffffffffffffffffffffffffff1673ffffffffffffffffffffffffffffffffffffffff168152602001908152602001600020819055508173ffffffffffffffffffffffffffffffffffffffff168373ffffffffffffffffffffffffffffffffffffffff167f8c5be1e5ebec7d5bd14f71427d1e84f3dd0314c0f7b2291e5b200ac8c7c3b925836040516109c8919061160e565b60405180910390a3505050565b60006109e1848461077b565b90507fffffffffffffffffffffffffffffffffffffffffffffffffffffffffffffffff8114610a5b5781811015610a4d576040517f08c379a0000000000000000000000000000000000000000000000000000000008152600401610a449061150e565b60405180910390fd5b610a5a848484840361080a565b5b50505050565b600073ffffffffffffffffffffffffffffffffffffffff168373ffffffffffffffffffffffffffffffffffffffff161415610ad1576040517f08c379a0000000000000000000000000000000000000000000000000000000008152600401610ac89061158e565b60405180910390fd5b600073ffffffffffffffffffffffffffffffffffffffff168273ffffffffffffffffffffffffffffffffffffffff161415610b41576040517f08c379a0000000000000000000000000000000000000000000000000000000008152600401610b38906114ae565b60405180910390fd5b610b4c8383836110d5565b60008060008573ffffffffffffffffffffffffffffffffffffffff1673ffffffffffffffffffffffffffffffffffffffff16815260200190815260200160002054905081811015610bd2576040517f08c379a0000000000000000000000000000000000000000000000000000000008152600401610bc99061152e565b60405180910390fd5b8181036000808673ffffffffffffffffffffffffffffffffffffffff1673ffffffffffffffffffffffffffffffffffffffff16815260200190815260200160002081905550816000808573ffffffffffffffffffffffffffffffffffffffff1673ffffffffffffffffffffffffffffffffffffffff1681526020019081526020016000206000828254610c659190611660565b925050819055508273ffffffffffffffffffffffffffffffffffffffff168473ffffffffffffffffffffffffffffffffffffffff167fddf252ad1be2c89b69c2b068fc378daa952ba7f163c4a11628f55a4df523b3ef84604051610cc9919061160e565b60405180910390a3610cdc8484846110da565b50505050565b600073ffffffffffffffffffffffffffffffffffffffff168273ffffffffffffffffffffffffffffffffffffffff161415610d52576040517f08c379a0000000000000000000000000000000000000000000000000000000008152600401610d49906115ee565b60405180910390fd5b610d5e600083836110d5565b8060026000828254610d709190611660565b92505081905550806000808473ffffffffffffffffffffffffffffffffffffffff1673ffffffffffffffffffffffffffffffffffffffff1681526020019081526020016000206000828254610dc59190611660565b925050819055508173ffffffffffffffffffffffffffffffffffffffff16600073ffffffffffffffffffffffffffffffffffffffff167fddf252ad1be2c89b69c2b068fc378daa952ba7f163c4a11628f55a4df523b3ef83604051610e2a919061160e565b60405180910390a3610e3e600083836110da565b5050565b610eda8282604051602401610e5892919061147e565b6040516020818303038152906040527f319af333000000000000000000000000000000000000000000000000000000007bffffffffffffffffffffffffffffffffffffffffffffffffffffffff19166020820180517bffffffffffffffffffffffffffffffffffffffffffffffffffffffff83818316178352505050506110df565b5050565b600073ffffffffffffffffffffffffffffffffffffffff168273ffffffffffffffffffffffffffffffffffffffff161415610f4e576040517f08c379a0000000000000000000000000000000000000000000000000000000008152600401610f459061156e565b60405180910390fd5b610f5a826000836110d5565b60008060008473ffffffffffffffffffffffffffffffffffffffff1673ffffffffffffffffffffffffffffffffffffffff16815260200190815260200160002054905081811015610fe0576040517f08c379a0000000000000000000000000000000000000000000000000000000008152600401610fd7906114ce565b60405180910390fd5b8181036000808573ffffffffffffffffffffffffffffffffffffffff1673ffffffffffffffffffffffffffffffffffffffff16815260200190815260200160002081905550816002600082825461103791906116b6565b92505081905550600073ffffffffffffffffffffffffffffffffffffffff168373ffffffffffffffffffffffffffffffffffffffff167fddf252ad1be2c89b69c2b068fc378daa952ba7f163c4a11628f55a4df523b3ef8460405161109c919061160e565b60405180910390a36110b0836000846110da565b505050565b6110c7826110c1610802565b836109d5565b6110d18282610ede565b5050565b505050565b505050565b60008151905060006a636f6e736f6c652e6c6f679050602083016000808483855afa5050505050565b60008135905061111781611b2c565b92915050565b60008135905061112c81611b43565b92915050565b60006020828403121561114457600080fd5b600061115284828501611108565b91505092915050565b6000806040838503121561116e57600080fd5b600061117c85828601611108565b925050602061118d85828601611108565b9150509250929050565b6000806000606084860312156111ac57600080fd5b60006111ba86828701611108565b93505060206111cb86828701611108565b92505060406111dc8682870161111d565b9150509250925092565b600080604083850312156111f957600080fd5b600061120785828601611108565b92505060206112188582860161111d565b9150509250929050565b60006020828403121561123457600080fd5b60006112428482850161111d565b91505092915050565b611254816116ea565b82525050565b611263816116fc565b82525050565b600061127482611644565b61127e818561164f565b935061128e81856020860161173f565b61129781611802565b840191505092915050565b60006112af60238361164f565b91506112ba82611813565b604082019050919050565b60006112d260228361164f565b91506112dd82611862565b604082019050919050565b60006112f560228361164f565b9150611300826118b1565b604082019050919050565b6000611318601d8361164f565b915061132382611900565b602082019050919050565b600061133b60268361164f565b915061134682611929565b604082019050919050565b600061135e60378361164f565b915061136982611978565b604082019050919050565b600061138160218361164f565b915061138c826119c7565b604082019050919050565b60006113a460258361164f565b91506113af82611a16565b604082019050919050565b60006113c760248361164f565b91506113d282611a65565b604082019050919050565b60006113ea60258361164f565b91506113f582611ab4565b604082019050919050565b600061140d601f8361164f565b915061141882611b03565b602082019050919050565b61142c81611728565b82525050565b61143b81611732565b82525050565b6000602082019050611456600083018461125a565b92915050565b600060208201905081810360008301526114768184611269565b905092915050565b600060408201905081810360008301526114988185611269565b90506114a7602083018461124b565b9392505050565b600060208201905081810360008301526114c7816112a2565b9050919050565b600060208201905081810360008301526114e7816112c5565b9050919050565b60006020820190508181036000830152611507816112e8565b9050919050565b600060208201905081810360008301526115278161130b565b9050919050565b600060208201905081810360008301526115478161132e565b9050919050565b6000602082019050818103600083015261156781611351565b9050919050565b6000602082019050818103600083015261158781611374565b9050919050565b600060208201905081810360008301526115a781611397565b9050919050565b600060208201905081810360008301526115c7816113ba565b9050919050565b600060208201905081810360008301526115e7816113dd565b9050919050565b6000602082019050818103600083015261160781611400565b9050919050565b60006020820190506116236000830184611423565b92915050565b600060208201905061163e6000830184611432565b92915050565b600081519050919050565b600082825260208201905092915050565b600061166b82611728565b915061167683611728565b9250827fffffffffffffffffffffffffffffffffffffffffffffffffffffffffffffffff038211156116ab576116aa6117a4565b5b828201905092915050565b60006116c182611728565b91506116cc83611728565b9250828210156116df576116de6117a4565b5b828203905092915050565b60006116f582611708565b9050919050565b60008115159050919050565b600073ffffffffffffffffffffffffffffffffffffffff82169050919050565b6000819050919050565b600060ff82169050919050565b60005b8381101561175d578082015181840152602081019050611742565b8381111561176c576000848401525b50505050565b6000600282049050600182168061178a57607f821691505b6020821081141561179e5761179d6117d3565b5b50919050565b7f4e487b7100000000000000000000000000000000000000000000000000000000600052601160045260246000fd5b7f4e487b7100000000000000000000000000000000000000000000000000000000600052602260045260246000fd5b6000601f19601f8301169050919050565b7f45524332303a207472616e7366657220746f20746865207a65726f206164647260008201527f6573730000000000000000000000000000000000000000000000000000000000602082015250565b7f45524332303a206275726e20616d6f756e7420657863656564732062616c616e60008201527f6365000000000000000000000000000000000000000000000000000000000000602082015250565b7f45524332303a20617070726f766520746f20746865207a65726f20616464726560008201527f7373000000000000000000000000000000000000000000000000000000000000602082015250565b7f45524332303a20696e73756666696369656e7420616c6c6f77616e6365000000600082015250565b7f45524332303a207472616e7366657220616d6f756e742065786365656473206260008201527f616c616e63650000000000000000000000000000000000000000000000000000602082015250565b7f57537461636b446f6c6c6172733a206f6e6c792074686520627269646765206360008201527f616e20747269676765722074686973206d6574686f6421000000000000000000602082015250565b7f45524332303a206275726e2066726f6d20746865207a65726f2061646472657360008201527f7300000000000000000000000000000000000000000000000000000000000000602082015250565b7f45524332303a207472616e736665722066726f6d20746865207a65726f20616460008201527f6472657373000000000000000000000000000000000000000000000000000000602082015250565b7f45524332303a20617070726f76652066726f6d20746865207a65726f2061646460008201527f7265737300000000000000000000000000000000000000000000000000000000602082015250565b7f45524332303a2064656372656173656420616c6c6f77616e63652062656c6f7760008201527f207a65726f000000000000000000000000000000000000000000000000000000602082015250565b7f45524332303a206d696e7420746f20746865207a65726f206164647265737300600082015250565b611b35816116ea565b8114611b4057600080fd5b50565b611b4c81611728565b8114611b5757600080fd5b5056fea26469706673582212206b83c67db24e35481911eba3e35ee9cedc83b7194efe9e17107693274438d08964736f6c63430008040033",
  "linkReferences": {},
  "deployedLinkReferences": {}
}